:020000040800F2
:1000000010040020852300087122000873220008D4
:1000100075220008772200087922000800000000FD
:100020000000000000000000000000007B2200082B
:100030007D220008000000007F22000881220008C5
:10004000B5230008B9230008BD230008C123000818
:10005000C5230008C9230008CD230008D1230008C8
:10006000D5230008D9230008DD2300088D220008CD
:10007000E1230008E5230008E9230008ED23000838
:10008000F1230008F5230008F9230008FD230008E8
:100090000124000805240008092400080D24000894
:1000A0001124000815240008192400081D24000844
:1000B000212400082524000897220008292400088C
:1000C0002D240008312400083524000839240008B4
:1000D0003D24000841240008452400084924000864
:1000E0004D240008512400085524000870B582B042
:1000F000040000252078C00740F18480DFF89C06CA
:10010000006810F00C0004280BD0DFF8900600689F
:1001100010F00C0008280ED1DFF880060068C0033C
:1001200009D5DFF87406006880036BD56068002885
:1001300068D1012004E26068B0F5803F08D1DFF8A3
:100140005806006850F48030DFF84C16086038E03C
:100150006068002810D1DFF84006006830F4803075
:10016000DFF834160860DFF83006006830F48020CD
:10017000DFF82416086024E06068B0F5A02F10D1E5
:10018000DFF81406006850F48020DFF80C160860D1
:10019000DFF80406006850F48030DFF8FC150860D2
:1001A0000FE0DFF8F405006830F48030DFF8E81580
:1001B0000860DFF8E405006830F48020DFF8D81527
:1001C0000860606800280ED000F041FB0500DFF8F1
:1001D000C8050068800315D400F039FB401B652872
:1001E000F5D30320ACE100F032FB0500DFF8A805F1
:1001F0000068800306D500F02AFB401B6528F5D374
:1002000003209DE1207880075CD5DFF89005006829
:1002100010F00C0F0BD0DFF88405006810F00C0014
:1002200008281AD1DFF874050068C00315D4DFF878
:1002300068050068800704D52069012801D00120E5
:100240007EE1DFF85405006830F0F800616950EA9B
:10025000C100DFF84415086034E0206900281ED092
:100260000120DFF84815086000F0F1FA0500DFF81A
:1002700028050068800706D400F0E9FA401B03282F
:10028000F5D303205CE1DFF81005006830F0F800DA
:10029000616950EAC100DFF80015086012E0002033
:1002A000DFF80815086000F0D2FA0500DFF8E8046E
:1002B0000068800706D500F0CAFA401B0328F5D372
:1002C00003203DE1207800072CD5A069002816D036
:1002D0000120DFF8DC14086000F0B9FA0500DFF84F
:1002E000C8040068800706D400F0B1FA401B032858
:1002F000F5D3032024E1012000F03AFA12E00020B7
:10030000DFF8AC14086000F0A2FA0500DFF89804EA
:100310000068800706D500F09AFA401B0328F5D341
:1003200003200DE12078400740F1A7800026DFF888
:1003300084040068C00010D4DFF87804006850F02E
:100340008050DFF870140860DFF86804006810F06F
:1003500080500090009801200600DFF85C040068DF
:10036000C00516D4DFF85004006850F48070DFF840
:100370004814086000F06BFA0500DFF83C040068E0
:10038000C00506D400F063FA401B6528F5D30320AE
:10039000D6E0E068012808D1DFF82004006850F0BA
:1003A0000100DFF81814086037E0E068002810D179
:1003B000DFF80804006840084000DFF80014086017
:1003C000DFF8F803006830F00400DFF8F01308608D
:1003D00023E0E068052810D1DFF8E003006850F062
:1003E0000400DFF8D8130860DFF8D003006850F08D
:1003F0000100DFF8C81308600FE0DFF8C0030068F1
:1004000040084000DFF8B4130860DFF8B00300686C
:1004100030F00400DFF8A4130860E068002810D072
:1004200000F015FA0500DFF894030068800719D47E
:1004300000F00DFA401B41F289318842F3D30320CA
:100440007EE000F004FA0500DFF870030068800722
:1004500008D500F0FCF9401B41F289318842F3D302
:1004600003206DE0F6B2012E07D1DFF848030068E3
:1004700030F08050DFF83C130860E06900285ED05F
:10048000DFF81803006810F00C00082855D0E06968
:1004900002283FD10020DFF82813086000F0D7F9C8
:1004A0000500DFF8F4020068800106D500F0CFF9FE
:1004B000401B0328F5D3032042E0206AB0F5803FBB
:1004C00009D1DFF8D802006830F40030A168084391
:1004D000DFF8C8120860DFF8C402006830F4741056
:1004E000216A0843616A0843DFF8B01208600120FE
:1004F000DFF8CC12086000F0AAF90500DFF89802D6
:10050000006880011BD400F0A2F9401B0328F5D33A
:10051000032015E00020DFF8A812086000F097F92A
:100520000500DFF874020068800108D500F08FF93B
:10053000401B0328F5D3032002E0012000E0002047
:1005400076BD70B504000D000026DFF87802006863
:1005500010F00700A84211D2DFF868020068C00856
:10056000C0002843DFF85C120860DFF8580200681A
:1005700010F00700A84201D00120A3E020788007F6
:1005800009D5DFF81802006830F0F000A1680843D0
:10059000DFF8081208602078C00758D56068012885
:1005A00006D1DFF8F4010068800312D4012089E04D
:1005B0006068022806D1DFF8E0010068800108D4F5
:1005C00001207FE0DFF8D0010068800701D401201E
:1005D00078E0DFF8C801006880088000616808439F
:1005E0006E49086000F033F90600606801280ED1FA
:1005F0006A48006810F00C00042828D000F027F9A1
:10060000801B41F289318842F2D303205AE06068AE
:1006100002280ED16148006810F00C00082816D09E
:1006200000F015F9801B41F289318842F2D3032092
:1006300048E05A48006810F00C0F08D000F007F9A5
:10064000801B41F289318842F3D303203AE05D48B0
:10065000006810F0070085420ED25A480068C008B2
:10066000C0002843574908605648006810F007004A
:10067000A84201D0012025E02078400707D547484F
:10068000006830F4E060E16808434449086020787D
:10069000000708D54148006830F46050216950EAED
:1006A000C1003E49086000F00EF847493B4A126815
:1006B000C2F30312515CC8403A490860002000F0C0
:1006C0009EF8002070BD70B586B001A83F49102289
:1006D00000F0DCF83E480088ADF800000021002260
:1006E0000023002400202D4D2D68290011F00C0559
:1006F000042D02D0082D03D01DE0294D28001CE058
:1007000001ADC1F38346755D2C00CD030DD56D465B
:10071000224E3668C6F34046755D2A00204D05FB23
:1007200004F5B5FBF2F52B0003E02A4D05FB04F5BB
:100730002B00180001E01A4D280006B070BD1948C2
:100740000068704780B5FFF7FAFF2349134A126823
:10075000C2F30222515CC84002BD80B5FFF7EFFF33
:100760001D490E4A1268C2F3C222515CC84002BD44
:1007700081B00C490968C9084FF47A72B1FBF2F1F3
:1007800001FB00F1009100BF00994A1E0092002970
:10079000F9D101B07047000000100240041002407F
:1007A00000127A000400002024100240000042429F
:1007B000800442421C1002400070004020100240A1
:1007C00060004242002002407423000864230008B5
:1007D000E208000800093D00AC23000880B5264867
:1007E000006850F0100024490860032000F0E2F88F
:1007F000002000F004F800F029F9002002BD10B537
:1008000004004FF47A701D490978B0FBF1F01C49DF
:100810000968B1FBF0F000F0EDF8002801D00120EC
:100820000CE0102C09D2002221005FF0FF3000F014
:10083000C7F814480460002000E0012010BD1248F1
:1008400000680E49097808180F49086070470E487B
:100850000068704770B50400FFF7F9FF0500260037
:1008600016F1010F02D0054800788619FFF7EFFF57
:10087000401BB042FAD370BD0020024008000020A7
:1008800004000020000000200C050020103A07D3CF
:1008900030B4B1E83810103AA0E83810F9D230BCC2
:1008A000530724BFB1E80810A0E8081044BF51F86E
:1008B000043B40F8043BD20724BF31F8022B20F858
:1008C000022B44BF0B7803707047083A07D3B1E896
:1008D0000810083A40F8043B40F804CBF7D253071D
:1008E000E4E7010210F007024D4B1B6819004FF6B8
:1008F000FF0319404B4B53EA02231943484B19603D
:10090000704747480068C0F302207047012110F08B
:100910001F029140444A40B2430942F823107047F5
:1009200010B440B2002808D50A01404B40B210F084
:100930000F04E31803F8042C03E00A013C4B40B217
:10094000C25410BC704770B4030013F00704D4F114
:100950000706052E01D3042001E0D4F10700261D6F
:10096000072E01D2002500E0E51E012616FA00F050
:10097000401E0840A8400121A940491E11400843DB
:1009800070BC704710B50400601EB0F1807F01D3C9
:1009900001200EE0601E274908600F215FF0FF3044
:1009A000FFF7BEFF002024490860072023490860A4
:1009B000002010BD10B504002000FFF793FF10BD0C
:1009C000F8B504000D0016000027FFF79AFF070096
:1009D000320029003800FFF7B6FF0100200040B2C6
:1009E000FFF79EFFF1BD10B50400200040B2FFF7F5
:1009F0008DFF10BD10B504002000FFF7C3FF10BD30
:100A0000042806D10D49096851F004010B4A116010
:100A100005E00A49096831F00401084A116070478D
:100A20000CED00E00000FA0500E100E018ED00E048
:100A300000E400E014E000E018E000E010E000E076
:100A400080B500F001F801BD7047000080B5754821
:100A5000006850F00100734908607248006810F0A7
:100A60000100009000987048006850F080506E4976
:100A700008606D48006810F08050009000980320D6
:100A8000FFF798FF002200217FF00B00FFF798FF8F
:100A9000002200217FF00A00FFF792FF00220021D0
:100AA0007FF00900FFF78CFF002200217FF0040097
:100AB000FFF786FF002200217FF00300FFF780FF91
:100AC000002200217FF00100FFF77AFF00220021C1
:100AD0005FF0FF30FFF774FF54490968080030F0F9
:100AE000E06050F000705149086001BD10B586B05B
:100AF000040020684E4988423AD14A48006850F4C0
:100B00000070484908604748006810F40070009081
:100B10000098022001900320029001A9454800F0AE
:100B200097F845484549086000204449486000203E
:100B30004249886080204149C8604FF480703F4935
:100B400008614FF480603D49486100203B4988615D
:100B500000203A49C861394800F00EFA002803D055
:100B60007721374800F0DEFC344820623348446285
:100B700006B010BD10B582B004002068314988422B
:100B800013D12948006850F004002749086026481E
:100B9000006810F0040000900098002200211E2040
:100BA000FFF70EFF1E20FFF71EFF13BD1FB5040049
:100BB00020682449884209D1C02000900220019079
:100BC000032003906946204800F042F81FBD10B58D
:100BD00086B0040020681D49884221D11148006870
:100BE00050F480400F4908600E48006810F48040BF
:100BF000009000984FF400700190022002900320B2
:100C0000049001A90B4800F023F84FF48060019094
:100C1000002002900020039001A9064800F018F877
:100C200006B010BD181002401C1002400400014024
:100C30000024014000080140080002401004002088
:100C4000D420000800080040000C0140003801409A
:100C50002DE9F84100230024002500265FF0000E56
:100C60005FF0000C6246102A80F04D815FF0010CAD
:100C70001CFA02FC6346D1F800C013EA0C0C64466F
:100C80009C4240F03E81D1F804C0BCF1000F3DD041
:100C9000BCF1010F24D0BCF1020F2BD0BCF1030F2B
:100CA0004CD0BCF1110F1FD0BCF1120F28D0DFF8CF
:100CB0008882C4452AD0DFF88482C44526D0DFF874
:100CC0008082C44522D0DFF87C82C4451ED0DFF884
:100CD0007882C4451AD0DFF87482C44516D031E05A
:100CE000D1F80CC066462DE0D1F80CC01CF1040C04
:100CF000664627E0D1F80CC01CF1080C664621E0DE
:100D0000D1F80CC01CF10C0C66461BE0D1F808C0F1
:100D1000BCF1000F03D15FF0040C66460DE0D1F882
:100D200008C0BCF1010F04D15FF0080C66460361F6
:100D300003E05FF0080C6646436103E05FF0000CDF
:100D40006646FFE7FF2C01D8070000E0071DFF2CD7
:100D500002D85FEA820E03E0B2F1080C5FEA8C0E63
:100D6000D7F800C05FF00F0818FA0EF83CEA080C3C
:100D700016FA0EF858EA0C0CC7F800C0D1F804C0F7
:100D80005FEACC0C40F1BD80DFF8C4C1DCF800C0E4
:100D90005CF0010CDFF8B881C8F800C0DFF8B0C122
:100DA000DCF800C01CF00108CDF80080DDF800C0C0
:100DB000DFF8A0C15FEA92085CF828C065465FF0E2
:100DC0000F0C12F003085FFA88F85FEA88081CFA33
:100DD00008FC35EA0C05DFF880C1604502D15FF000
:100DE000000C16E0DFF874C1604502D15FF0010C21
:100DF0000FE0DFF86CC1604502D15FF0020C08E043
:100E0000DFF860C1604502D15FF0030C01E05FF0E4
:100E1000040C12F003085FFA88F85FEA88081CFAED
:100E200008FC5CEA0505DFF82CC15FEA92084CF883
:100E30002850D1F804C05FEACC3C0AD5DFF828C1BD
:100E4000DCF800C054EA0C0CDFF81C81C8F800C0C4
:100E500009E0DFF814C1DCF800C03CEA040CDFF85C
:100E60000881C8F800C0D1F804C05FEA8C3C0AD5FC
:100E7000DFF8F8C0DCF800C054EA0C0CDFF8EC80B6
:100E8000C8F800C009E0DFF8E4C0DCF800C03CEAC4
:100E9000040CDFF8D880C8F800C0D1F804C05FEABD
:100EA000CC2C0AD5DFF8C8C0DCF800C054EA0C0C22
:100EB000DFF8BC80C8F800C009E0DFF8B4C0DCF897
:100EC00000C03CEA040CDFF8A880C8F800C0D1F8E4
:100ED00004C05FEA8C2C0AD5DFF898C0DCF800C0AB
:100EE00054EA0C0CDFF88C80C8F800C009E0DFF889
:100EF00084C0DCF800C03CEA040CDFF87880C8F855
:100F000000C0521CAFE6BDE8F1810200936889B2CF
:100F10000B4202D00123180001E000231800C0B2E8
:100F20007047D2B2002A02D089B2016102E089B2D0
:100F30000B04036170470000000011100000121044
:100F400000002110000022100000311000003210BB
:100F5000181002400800014000080140000C014048
:100F6000001001400014014000040140040401404D
:100F7000080401400C04014001000022002901D1B5
:100F8000012034E00868DFF8D43118181423B0FBCE
:100F9000F3F080000864DFF8C801C863022081F81C
:100FA00021000868006802006FF30D1248688B6822
:100FB0001843CB6818430B6918434B6918438B6976
:100FC0001843CB6918430243086802600020886216
:100FD0000020C86200200863002048630020886366
:100FE000012081F82100002081F8200000207047B6
:100FF00070B50400E06B0568206806680420216C69
:10100000884005423ED070073CD5206800688006C5
:1010100005D42068006830F004002168086020686A
:101020005049884201D1042023E020684E4988427B
:1010300001D140201DE020684C49884202D14FF484
:10104000806016E020684A49884202D14FF480400F
:101050000FE020684749884202D15FF4802008E011
:1010600020684549884202D15FF4800001E05FF0CA
:10107000806042490860E06A00286DD02000E16A83
:10108000884769E00220216C8840054244D0B007BF
:1010900042D520680068800608D42068006830F0D7
:1010A0000A0021680860012084F8210020682D4989
:1010B000884201D1022023E020682B49884201D1D7
:1010C00020201DE020682949884202D14FF4007099
:1010D00016E020682649884202D14FF400500FE004
:1010E00020682449884202D15FF4003008E020687B
:1010F0002149884202D15FF4001001E05FF00070E6
:101100001E490860002084F82000A06A002823D02F
:101110002000A16A88471FE00820216C8840054212
:101120001AD0300718D52068006830F00E0021680A
:1011300008600120216C8840E16B48600120A063B9
:10114000012084F82100002084F82000206B002872
:1011500002D02000216B884770BD0000F8FFFDBF62
:1011600000000240080002401C0002403000024023
:1011700044000240580002406C000240040002405B
:1011800080B5FFF72BFB00F04DF800F059F900F0A7
:1011900041F900F099F800F019F940F65430DFF801
:1011A0004413088000F0C1F80021DFF83C0300F090
:1011B000D7F90421CC4800F0D3F90020CB490860CE
:1011C0000020CB4908602021CA48FFF79EFE002876
:1011D000F9D0C4480088022190FBF1F0C3490860AF
:1011E000C0480088022190FBF1F0C149086000204E
:1011F000C1490860C0480068B0F5AF7F08DA0E202A
:10120000BE490860BC480068401CBB490860F1E763
:101210000020B64908600020B54908603220FFF779
:1012200019FBD0E700B593B0012009905FF480303E
:101230000A9000200B9001200D90022010905FF486
:10124000803011905FF4E010129009A8FEF74EFF75
:10125000002803D06121AA4800F064F90F2004900F
:1012600002200590002006904FF480600790002037
:101270000890022104A8FFF764F9002803D06F2129
:101280009F4800F04FF9022000904FF40040029078
:10129000684600F0D9FB002803D07621984800F07A
:1012A00041F9FFF74CFA4FF47A71B0FBF1F0FFF718
:1012B000A1FB0420FFF7A4FB002200215FF0FF3018
:1012C000FFF77EFB13B000BDE0B58E488E49086085
:1012D00000208D49886001208B49C86000208A4920
:1012E00048615FF460208849C861002086494860F1
:1012F000012085490861844800F036FC002803D0AD
:1013000096217F4800F00EF9012000900120019005
:101310000020029069467C4800F0CAFC002803D0F7
:10132000A021774800F0FEF807BD00B589B07748E6
:101330006D49086000206C49486000206A49886057
:10134000684800886849C860002067490861002033
:1013500065498861644800F0E7F8002803D0B421AB
:10136000674800F0DFF800200090002001906946F7
:101370005D4800F073FD002803D0BB21604800F0F9
:10138000D1F86020029000200390002004900020FB
:101390000690002202A9544800F0BBF9002803D0AF
:1013A000C421574800F0BEF802200490042202A98C
:1013B0004D4800F0AEF9002803D0CA21504800F093
:1013C000B1F84948FFF7F2FB09B000BD80B55048BD
:1013D000504908605FF4E1304E49486000204D49B3
:1013E000886000204B49C86000204A4908610C20F1
:1013F0004849486100204749886100204549C86143
:10140000444800F05BFD002803D0DF213C4800F099
:1014100089F801BD80B54048006850F001003E49A0
:1014200008603D48006810F001000090009800221C
:1014300000210B20FFF7C4FA0B20FFF7D4FA01BDFF
:1014400000B585B03548006850F010003349086099
:101450003248006810F01000009000982F48006893
:1014600050F020002D4908602C48006810F0200042
:10147000009000982948006850F00400274908604F
:101480002648006810F00400009000982348006887
:1014900050F00800214908602048006810F008005A
:1014A0000090009800224FF400511D48FFF739FDCD
:1014B0004FF4005001900120029000200390022080
:1014C000049001A91648FFF7C3FB202001900020DB
:1014D00002900120039001A90648FFF7B9FB05B06F
:1014E00000BD000010050020540400203408004016
:1014F00038080040000801400405002008050020CD
:101500005421000800240140D404002000080040B9
:1015100000380140940400201410024018100240CA
:1015200000100140FEE7000010B50400002C01D1BE
:10153000012014E094F83D00002805D1002084F833
:101540003C002000FFF716FB022084F83D00211D1F
:10155000206800F063F9012084F83D00002010BDF0
:1015600038B504000D0001222900206800F05CFA63
:101570002068DFF82410884205D12068406C50F4C0
:101580000040216848642068006850F0010021682C
:101590000860002032BD0000002C014010B504009E
:1015A0002068006980071AD52068C068800716D5B2
:1015B0007FF002002168086101202077206880699F
:1015C00010F0030F03D0200000F025F905E0200003
:1015D00000F020F9200000F01FF90020207720689B
:1015E000006940071AD52068C068400716D57FF00B
:1015F000040021680861022020772068806910F4C7
:10160000407F03D0200000F006F905E0200000F044
:1016100001F9200000F000F900202077206800691F
:1016200000071AD52068C068000716D57FF00800AB
:1016300021680861042020772068C06910F0030F3A
:1016400003D0200000F0E7F805E0200000F0E2F809
:10165000200000F0E1F80020207720680069C00633
:101660001AD52068C068C00616D57FF01000216822
:101670000861082020772068C06910F4407F03D0FB
:10168000200000F0C8F805E0200000F0C3F82000BA
:1016900000F0C2F80020207720680069C0070AD552
:1016A0002068C068C00706D57FF001002168086186
:1016B000200000F0AEF82068006900060AD5206816
:1016C000C068000606D57FF0800021680861200010
:1016D00000F0F2FB2068006940060AD52068C06867
:1016E000400606D57FF0400021680861200000F028
:1016F00094F82068006980060AD52068C0688006D2
:1017000006D57FF0200021680861200000F0D3FB9F
:1017100010BD70B504000D00160094F83C000128BF
:1017200001D1022074E0012084F83C00022084F8FA
:101730003D003000002806D004281BD0082831D0F6
:101740000C2846D05DE02900206800F09BF8206856
:10175000806950F00800216888612068806930F055
:10176000040021688861206880692969084321682C
:10177000886146E02900206800F0B7F82068806999
:1017800050F40060216888612068806930F48060CE
:101790002168886120688069296950EA01202168F0
:1017A00088612EE02900206800F0D7F82068C06921
:1017B00050F008002168C8612068C06930F004005A
:1017C0002168C8612068C069296908432168C86127
:1017D00017E02900206800F0F7F82068C06950F48D
:1017E00000602168C8612068C06930F480602168A9
:1017F000C8612068C069296950EA01202168C86170
:10180000FFE7012084F83D00002084F83C00002020
:1018100070BD70477047704770477047002203687B
:101820001A007E4B984208D0B0F1804F05D07C4B17
:10183000984202D07B4B984203D132F070024B6841
:101840001A43764B984208D0B0F1804F05D0744BC4
:10185000984202D0734B984203D132F44072CB6865
:101860001A4332F080024B691A4302608B68C362EC
:101870000B688362694B984201D10B6903630123B2
:101880004361704730B4002300240022056A6D08CC
:101890006D000562056A2C0045682A0085692B00E9
:1018A00033F070039B089B000D682B4334F0020457
:1018B0008D682C43594DA84205D134F00804CD68F9
:1018C0002C4334F00404554DA84207D132F4807201
:1018D00032F400724D692A438D692A434260836164
:1018E0004D684563046230BC704730B40023002467
:1018F0000022056A35F010050562056A2C0045686E
:101900002A0085692B0033F4E04333F440730D68FB
:1019100053EA052334F020048D6854EA05143F4D42
:10192000A84206D134F08004CD6854EA051434F09E
:1019300040043A4DA84209D132F4806232F4006288
:101940004D6952EA85028D6952EA850242608361DF
:101950004D688563046230BC704730B400230024B6
:101960000022056A35F480750562056A2C00456819
:101970002A00C5692B0033F070039B089B000D689B
:101980002B4334F400748D6854EA0524234DA84297
:1019900006D134F40064CD6854EA052434F480643C
:1019A0001E4DA84209D132F4805232F400524D69E2
:1019B00052EA05128D6952EA05124260C3614D6810
:1019C000C563046230BC704730B400220023002499
:1019D000056A35F480550562056A2B0045682C00C0
:1019E000C5692A0032F4E04232F440720D6852EACE
:1019F000052233F400538D6853EA0533074DA8429E
:101A000004D134F480444D6954EA85144460C261C1
:101A10004D680564036230BC70470000002C014033
:101A2000000400400008004030B4002301248C4032
:101A30002300046A9C430462046A12FA01F52C43F1
:101A4000046230BC70470000F8B504000025002691
:101A50002078C00766D500273E480068C0000DD436
:101A60003C48006850F080503A49086039480068A6
:101A700010F0805000900098012007003648006860
:101A8000C00513D43448006850F4807032490860AF
:101A9000FEF7DDFE050030480068C00506D4FEF7FD
:101AA000D6FE401B6528F6D3032052E02B48006881
:101AB00010F440700600002E23D0606810F44070CF
:101AC00086421ED02548006830F440700600012090
:101AD0002349086000202249086020480660F0077A
:101AE0000FD5FEF7B4FE05001C480068800708D437
:101AF000FEF7ADFE401B41F289318842F4D303204A
:101B000027E01648006830F44070616808431349C4
:101B10000860FFB2012F05D10E48006830F08050F8
:101B20000C4908602078800707D50E48006830F41B
:101B30004040A16808430B4908602078C00607D5DB
:101B40000848006830F48000E168084305490860EF
:101B50000020F2BD1C100240007000402010024026
:101B600040044242041002402DE9F04104000025E7
:101B7000002600275FF00008002C01D1012095E02D
:101B8000A068002801D060690028A06A002807D159
:101B90000020E062002084F824002000FEF7A6FF69
:101BA000200000F035F90500A06AC00676D4EDB239
:101BB000002D73D1A06A30F4885050F00200A0626A
:101BC0006068E1690843E16850EA41000743A068A2
:101BD000B0F5807F02D0A068012802D14FF4807058
:101BE00000E0002006436069012811D1E068002868
:101BF00006D1A069401E400350F40060064307E090
:101C0000A06A50F02000A062E06A50F00100E0629B
:101C10002068406830F4694030432168486020689B
:101C20008068DFF8D8110840384321688860A068D0
:101C3000B0F5807F02D0A068012802D14FF48070F7
:101C400000E00020B0F5807F03D12069401E000530
:101C500080462068C06A30F4700058EA00002168AD
:101C6000C86220688068DFF898110840B84208D13F
:101C70000020E062A06A30F0020050F00100A06293
:101C800012E0A06A30F0020050F01000A062E06A9A
:101C900050F00100E0620120050005E0A06A50F06C
:101CA0001000A062012005002800C0B2BDE8F0814C
:101CB00078B4020000230020009092F8240001284C
:101CC00001D1022097E0012082F82400486807280B
:101CD00012D21068406B1F244D686D1E0526754397
:101CE000AC40A0430C684D686D1E05267543AC40A2
:101CF00020431468606327E048680D2812D21068FA
:101D0000006B1F244D68ED1F05267543AC40A043B2
:101D10000C684D68ED1F05267543AC4020431468E0
:101D2000206311E01068C06A1F244D680D3D052630
:101D30007543AC40A0430C684D680D3D05267543C6
:101D4000AC4020431468E06208680A2812D3106887
:101D5000C06807240D680A3D03267543AC40A043C4
:101D60008C680D680A3D03267543AC402043146817
:101D7000E0600FE01068006907240D6803267543D2
:101D8000AC40A0438C680D6803267543AC402043EB
:101D9000146820610868102802D00868112825D12D
:101DA0001068184CA0421BD11068806800021DD436
:101DB0001068806850F400001468A060086810285B
:101DC00014D111480068114CB0FBF4F00A246043B0
:101DD00000900098002809D00098401E0090F8E775
:101DE000906A50F02000906201200300002082F8E9
:101DF00024001800C0B272BC70470000FDF7E1FF7C
:101E0000FE0E1FFF002401400400002040420F008E
:101E100038B50400002520688068C0071BD52068FD
:101E200080684008400021688860FEF710FD0500CA
:101E300020688068C0070ED5FEF709FD401B032807
:101E4000F6D3A06A50F01000A062E06A50F00100E2
:101E5000E062012000E0002032BD0000020092F8A4
:101E60003C00012801D1022024E0012082F83C003E
:101E7000022082F83D001068406830F0700013685E
:101E80005860106840680B68184313685860106801
:101E9000806830F0800013689860106880684B6834
:101EA000184313689860012082F83D00002082F8F2
:101EB0003C000020704770477047000010B50400D8
:101EC000002C01D1012033E0A0690028FFD194F853
:101ED0003900002805D1002084F838002000FEF7E2
:101EE00076FE242084F839002068C06830F4005061
:101EF0002168C860200000F01CF82068006930F4F8
:101F00009040216808612068406930F02A0021680B
:101F100048612068C06850F400502168C860002003
:101F2000E063202084F83900202084F83A00002063
:101F300010BD2DE9F843040000252068006930F445
:101F40004050E168084321680861A068216908439E
:101F50006169084305432068C0685C49084028431C
:101F60002168C8602068406930F44070A169084366
:101F70002168486120685649884252D1FEF7EDFB3E
:101F80008146FEF7EAFB8046FEF7E7FB0700FEF717
:101F9000E4FB0600FEF7E1FB192101FB09F1626891
:101FA0009200B1FBF2F16422B1FBF2F1192202FBC3
:101FB00008F263689B00B2FBF3F2192303FB07F3FB
:101FC0006768BF00B3FBF7F36427B3FBF7F364273D
:101FD00007FB1322120132326423B2FBF3F212F038
:101FE000F00212EB0111192202FB06F263689B005A
:101FF000B2FBF3F21923584363689B00B0FBF3F084
:102000006423B0FBF3F0642303FB102000013230A3
:102010006422B0FBF2F010F00F00401821688860D5
:1020200051E0FEF78FFB8146FEF78CFB8046FEF702
:1020300089FB0700FEF786FB0600FEF783FB1921EC
:1020400001FB09F162689200B1FBF2F16422B1FB7D
:10205000F2F1192202FB08F263689B00B2FBF3F273
:10206000192303FB07F36768BF00B3FBF7F364278B
:10207000B3FBF7F3642707FB132212013232642308
:10208000B2FBF3F212F0F00212EB0111192202FB83
:1020900006F263689B00B2FBF3F2192358436368AE
:1020A0009B00B0FBF3F06423B0FBF3F0642303FB6D
:1020B0001020000132306422B0FBF2F010F00F006B
:1020C000401821688860BDE8F1830000F3E9FFFF54
:1020D00000380140433A5CC2D3C75CC0F1EFE8F07E
:1020E000E0EDF2F3F0E05CD3C75FF1E8F1F25C53AE
:1020F000544D33325C555A535C50574D2047656EF2
:10210000657261746F725C47656E657261746F723F
:102110005F526567756C61746F725F50574D5F7485
:102120007269675F31312E30352E323032305C5477
:1021300072616E736D69747465725C5372635C7303
:10214000746D3332663178785F68616C5F6D73707F
:102150002E630000433A5CC2D3C75CC0F1EFE8F0E5
:10216000E0EDF2F3F0E05CD3C75FF1E8F1F25C532D
:10217000544D33325C555A535C50574D2047656E71
:10218000657261746F725C47656E657261746F72BF
:102190005F526567756C61746F725F50574D5F7405
:1021A0007269675F31312E30352E323032305C54F7
:1021B00072616E736D69747465725C5372635C6D89
:1021C00061696E2E630000001348006850F0010042
:1021D0001149086011480068114908400F4908601A
:1021E0000D4800680F4908400B4908600A4800681C
:1021F00030F48020084908600848006830F4FE0088
:10220000064908605FF41F00074908605FF000603E
:1022100006490860704700000010024004100240A8
:102220000000FFF8FFFFF6FE0810024008ED00E096
:1022300019E050F8041BCB0744BFA9F1010359185A
:10224000121F0023042A41F8043BF9D25FEA827C82
:102250000B4604D54FF0000CA1F800C09B1CD10721
:1022600044BF0021197050F8042B002AE1D17047B7
:102270007047FEE7FEE7FEE7FEE7704770477047EE
:1022800080B5FEF7DCFAFEF7DBFB01BD80B5044844
:10229000FEF7AEFE01BD80B50248FFF77FF901BD34
:1022A000100400205404002010B450F8041B79B12D
:1022B0000268436812180830DC0744BFA9F1010422
:1022C000E31852F8044B43F8044B091FF9D1ECE72B
:1022D00010BC704710B5074979441831064C7C444E
:1022E000163404E00A68081D511888470146A142C7
:1022F000F8D110BD080000002800000035FFFFFFE6
:102300000401000010040020000000009DFFFFFFFA
:102310000C0000008C000000000000200000000005
:1023200000F00BF8002801D0FFF7D4FF0020C046D2
:10233000C046FEF725FF00F002F80120704700F0CC
:1023400001B800000746384600F002F8FBE700003D
:1023500080B5C046C046024A11001820ABBEFBE75C
:102360002600020002030405060708090A0B0C0DEB
:102370000E0F101000000000000000000102030416
:10238000060708090148804701480047C92100089D
:1023900095230008C046C046C046C046FFF7C0FFB0
:1023A0001000000000A24A0401000000000000002C
:1023B00001020304FFF7FEBFFFF7FEBFFFF7FEBFFA
:1023C000FFF7FEBFFFF7FEBFFFF7FEBFFFF7FEBF41
:1023D000FFF7FEBFFFF7FEBFFFF7FEBFFFF7FEBF31
:1023E000FFF7FEBFFFF7FEBFFFF7FEBFFFF7FEBF21
:1023F000FFF7FEBFFFF7FEBFFFF7FEBFFFF7FEBF11
:10240000FFF7FEBFFFF7FEBFFFF7FEBFFFF7FEBF00
:10241000FFF7FEBFFFF7FEBFFFF7FEBFFFF7FEBFF0
:10242000FFF7FEBFFFF7FEBFFFF7FEBFFFF7FEBFE0
:10243000FFF7FEBFFFF7FEBFFFF7FEBFFFF7FEBFD0
:10244000FFF7FEBFFFF7FEBFFFF7FEBFFFF7FEBFC0
:08245000FFF7FEBFFFF7FEBF1E
:040000050800239537
:00000001FF
