:020000040800F2
:1000000010040020852600086125000863250008EB
:100010006525000867250008692500080000000024
:100020000000000000000000000000006B25000838
:100030006D250008000000006F25000871250008EC
:10004000C1260008C5260008C9260008CD260008DC
:10005000D1260008D5260008D9260008DD2600088C
:10006000E12600087D250008E5260008E9260008AD
:10007000ED260008F1260008F5260008F9260008FC
:10008000FD260008012700080527000800000000E1
:100090000000000000000000000000000927000828
:1000A0000D27000811270008152700081927000848
:1000B0001D270008212700082527000829270008F8
:1000C0002D270008312700083527000839270008A8
:1000D0003D270008412700084527000800000000D0
:1000E000492700084D27000851270008000000009C
:1000F000000000000000000000000000552700087C
:1001000000000000592700085D270008612700084B
:1001100000000000000000000000000000000000DF
:100120008725000865270008692700086D27000853
:10013000712700080000000000000000000000001F
:10014000000000000000000000000000752700080B
:10015000792700087D2700088127000885270008E7
:10016000892700088D27000800000000000000001B
:10017000000000000000000000000000000000007F
:1001800000000000912700080000000000000000AF
:10019000952700089927000870B582B00400002C4C
:1001A00001D10120F2E12078C0076FD5DFF8040605
:1001B000006810F00C0004280BD0DFF8F805006888
:1001C00010F00C0008280ED1DFF8EC0500684002A2
:1001D00009D5DFF8E8050068800357D56068002876
:1001E00054D10120D2E16068B0F5803F08D1DFF83A
:1001F000CC05006850F48030DFF8C015086024E0BA
:100200006068B0F5A02F10D1DFF8B005006850F499
:100210008020DFF8A8150860DFF8A005006850F41A
:100220008030DFF8981508600FE0DFF8900500686F
:1002300030F48030DFF884150860DFF8800500684E
:1002400030F48020DFF874150860606800280ED054
:1002500000F015FB0500DFF864050068800315D485
:1002600000F00DFB401B6528F5D303208EE100F064
:1002700006FB0500DFF844050068800306D500F0A2
:10028000FEFA401B6528F5D303207FE12078800724
:100290005CD5DFF82005006810F00C0F0BD0DFF8FC
:1002A0001405006810F00C0008281AD1DFF80805C2
:1002B0000068400215D4DFF804050068800704D503
:1002C000E068012801D0012060E1DFF8F004006857
:1002D00030F0F800216950EAC100DFF8E01408604E
:1002E00034E0E06800281ED00120DFF8D414086054
:1002F00000F0C5FA0500DFF8C4040068800706D4E2
:1003000000F0BDFA401B0328F5D303203EE1DFF8DF
:10031000AC04006830F0F800216950EAC100DFF851
:100320009C14086012E00020DFF89414086000F0CC
:10033000A6FA0500DFF884040068800706D500F0FF
:100340009EFA401B0328F5D303201FE12078000705
:1003500028D56069002812D00120DFF868140860F1
:1003600000F08DFA0500DFF860040068800719D4FA
:1003700000F085FA401B0328F5D3032006E1002096
:10038000DFF84014086000F07AFA0500DFF838045E
:100390000068800706D500F072FA401B0328F5D3E9
:1003A0000320F3E02078400740F195800026DFF835
:1003B0001C040068C00012D400200090DFF80C0478
:1003C000006850F08050DFF804140860DFF8FC0388
:1003D000006810F080500090009801200600DFF8BF
:1003E000F0030068C00516D4DFF8E403006850F499
:1003F0008070DFF8DC13086000F041FA0500DFF8D8
:10040000D0030068C00506D400F039FA401B032869
:10041000F5D30320BAE0A068012808D1DFF8B403BF
:10042000006850F00100DFF8AC13086023E0A0681A
:10043000052810D1DFF89C03006850F00400DFF8B5
:1004400094130860DFF88C03006850F00100DFF8B7
:10045000841308600FE0DFF87C0300684008400068
:10046000DFF870130860DFF86C03006830F00400F8
:10047000DFF860130860A068002810D000F0FFF9D2
:100480000500DFF850030068800719D400F0F7F981
:10049000401B41F289318842F3D3032076E000F01B
:1004A000EEF90500DFF82C030068800708D500F09E
:1004B000E6F9401B41F289318842F3D3032065E01D
:1004C000F6B2012E07D1DFF80403006830F0805047
:1004D000DFF8F8120860A069002856D0DFF8D402CF
:1004E000006810F00C0008284DD0A069022837D110
:1004F0000020DFF8E412086000F0C1F90500DFF821
:10050000BC020068800106D500F0B9F9401B032841
:10051000F5D303203AE0E069216A0843616A50EAB2
:100520008110A16A891EC903090C09040843E16A04
:1005300050EA0160DFF8801208600120DFF89812AD
:10054000086000F09CF90500DFF870020068800187
:100550001BD400F094F9401B0328F5D3032015E0C9
:100560000020DFF87412086000F089F90500DFF858
:100570004C020068800108D500F081F9401B032877
:10058000F5D3032002E0012000E0002076BD70B525
:1005900004000D00002C01D10120AAE0DFF83C028C
:1005A000006810F00F00A8420BD2DFF8300205708F
:1005B000DFF82802006810F00F00A84201D00120E7
:1005C00097E0207880071FD52078400707D5DFF80F
:1005D000E401006850F4E050DFF8D811086020789A
:1005E000000707D5DFF8CC01006850F46040DFF861
:1005F000C4110860DFF8BC01006830F0F000A168A9
:100600000843DFF8B01108602078C0073BD5606868
:10061000012806D1DFF8A4010068800315D4012069
:1006200067E06068022802D06068032806D1DFF81E
:100630008C010068800108D401205AE0DFF87C01B9
:100640000068800701D4012053E0DFF868010068EA
:100650008008800061680843DFF85811086000F0E6
:100660000EF906005348006810F00C006168B0EB0A
:10067000810F08D000F003F9801B41F289318842D4
:10068000F0D3032035E05548006810F00F00854294
:1006900009D2524805705148006810F00F00A84276
:1006A00001D0012025E02078400707D541480068A7
:1006B00030F4E050E16808433E49086020780007C4
:1006C00008D53C48006830F46040216950EAC10018
:1006D0003849086000F00EF84149364A1268C2F302
:1006E0000312515CC8403F490860002000F09FF8A9
:1006F000002070BDF0B500240026002700252D48FD
:10070000006810F00C00002804D0042805D0082848
:1007100006D032E03448050031E0344805002EE0D0
:100720002548006810F03F0004002348006840029C
:100730000CD521480068C0F388102C49A1FB0001AA
:100740002200002300F0A8F806000BE01A48006819
:10075000C0F388102449A1FB00012200002300F00F
:100760009BF8060014480068C0F30140401C40009C
:100770000700B6FBF7F0050001E01B480500280064
:10078000F0BD18480068704780B5FFF7FAFF1849B8
:10079000084A1268C2F38222515CC84002BD80B58B
:1007A000FFF7EFFF1249034A1268C2F34232515C6D
:1007B000C84002BD083802400438024000380240F8
:1007C00000004742800E47427438024040380240E1
:1007D000007000407038024060004742003C024018
:1007E00074260008080000200024F40040787D01F1
:1007F000B826000880B52348006850F400702149ED
:1008000008602048006850F480601E4908601D4858
:10081000006850F480701B490860032000F01CF948
:10082000002000F004F800F065F9002002BD10B5CA
:1008300004004FF47A7014490978B0FBF1F01349C1
:100840000968B1FBF0F000F027F9002801D0012081
:100850000CE0102C09D2002221005FF0FF3000F0E4
:1008600001F90B480460002000E0012010BD094898
:10087000006805490978401806490860704705482E
:1008800000687047003C02400C0000200800002077
:100890000400002084EF00201B4213D1094236D10E
:1008A0002AB18446B0FBF2F002FB10C2704700F0A0
:1008B000F3B9FCD30022002370470B000200002193
:1008C00000207047904271EB030CF6D370B5B1FA7B
:1008D00081F4B3FA83F52C1BA340C4F1200532FA4E
:1008E00005F63343A2405FF00046E64002E05B08B5
:1008F0005FEA3202841A71EB030524BF20462946C1
:100900007641F4D302000B003000002170BD012AB3
:10091000CFD970B5140C20D0B1FA81F4B2FA82F5B7
:10092000C4F120046419B4F12006D6D3B2405FF0BC
:100930000044F440002502E052085FEA3303C61A7F
:1009400071EB020E24BF3046714664416D41F3D312
:1009500002000B002000290070BD0C46B1FBF2F133
:1009600002FB11452D0445EA1045B5FBF2F402FBEC
:10097000145580B240EA0545B5FBF2F002FB105277
:1009800040EA044070BD000010F007024E4B1B68A7
:1009900019004FF6FF0319404C4B53EA0223194349
:1009A000494B1960704748480068C0F302207047FF
:1009B000012110F01F029140454A40B2430942F81C
:1009C0002310704710B440B2002808D50A01414BEB
:1009D00040B210F00F04E31803F8042C03E00A01FE
:1009E0003D4B40B2C25410BC704770B4030013F0CA
:1009F0000704D4F10706052E01D3042001E0D4F149
:100A00000700261D072E01D2002500E0E51E012665
:100A100016FA00F0401E0840A8400121A940491ED6
:100A20001140084370BC704710B50400601EB0F15F
:100A3000807F01D301200EE0601E284908600F214D
:100A40005FF0FF30FFF7BEFF002025490860072058
:100A500024490860002010BD10B504002000FFF7F5
:100A600093FF10BDF8B504000D0016000027FFF736
:100A70009AFF0700320029003800FFF7B6FF010097
:100A8000200040B2FFF79EFFF1BD10B5040020002A
:100A900040B2FFF78DFF10BD10B504002000FFF736
:100AA000C3FF10BD042806D10E49096851F00401A6
:100AB0000C4A116005E00B49096831F00401094A4C
:100AC00011607047000000000CED00E00000FA0526
:100AD00000E100E018ED00E000E400E014E000E0D8
:100AE00018E000E010E000E080B500F001F801BD82
:100AF0007047000080B5002000905F48006850F407
:100B000080405D4908605C48006810F480400090B7
:100B10000098002000905948006850F080505749D4
:100B200008605648006810F080500090009803203C
:100B3000FFF792FF002200217FF00B00FFF792FFEA
:100B4000002200217FF00A00FFF78CFF0022002125
:100B50007FF00900FFF786FF002200217FF00400EC
:100B6000FFF780FF002200217FF00300FFF77AFFEC
:100B7000002200217FF00100FFF774FF0022002116
:100B80005FF0FF30FFF76EFF01BD10B586B00400C7
:100B900020683B49884246D10020009036480068D2
:100BA00050F48070344908603348006810F4807055
:100BB00000900098022001900320029000200390F2
:100BC00001A9304800F06AF82F4830490860002039
:100BD0002E49486000202D49886000202B49C860BC
:100BE0004FF48060294908614FF40060274948614B
:100BF0004FF400602549886100202449C8615FF4F2
:100C00000030224908620020204948621F4800F055
:100C100067F9002803D074211D4800F07DFE1B48B1
:100C2000A0631A48846306B010BD10B586B00400F6
:100C30002068184988421CD1002000900E480068A6
:100C400050F010000C4908600B48006810F01000CC
:100C5000009000984FF4C0600190022002900120A3
:100C60000390032004900720059001A9054800F097
:100C700015F806B010BD000044380240403802406C
:100C800000200140000002401064024070EE00208D
:100C90008C2300080010014070470000F8B40023C6
:100CA0000024002500263200102A80F0D88001267A
:100CB000964033000E681E4034009C4240F0CD80C8
:100CC0004E68022E02D04E68122E16D1D60810EBB6
:100CD0008606366A35000F2612F00707FFB2BF00FE
:100CE000BE40B5430E6912F00707FFB2BF00BE4019
:100CF0003543D60810EB86063562066835000326B4
:100D00001700FFB27F00BE40B5430E7916F0030610
:100D10001700FFB27F00BE40354305604E68012ECC
:100D200008D04E68022E05D04E68112E02D04E68B3
:100D3000122E19D18668350003261700FFB27F00F6
:100D4000BE40B543CE681700FFB27F00BE403543BA
:100D500085604668350001269640B5434E68C6F367
:100D60000016964035434560C668350003261700D7
:100D7000FFB27F00BE40B5438E681700FFB27F0010
:100D8000BE403543C5604E68F60066D50026009625
:100D9000464E366856F48046444F3E60434E3668B1
:100DA00016F480460096009E414E970856F827603C
:100DB00035000F2612F00307FFB2BF00BE40B54357
:100DC0003C4EB04201D1002614E03B4EB04201D16E
:100DD00001260FE0394EB04201D102260AE0384E1A
:100DE000B04201D1032605E0364EB04201D10426BF
:100DF00000E00726F6B212F00307FFB2BF00BE40C4
:100E000035432B4E970846F827502F4E366835004D
:100E1000A5434E68F60300D525432B4E35602B4E77
:100E200036683500A5434E68B60300D52543274EE6
:100E30003560274E36683500A5434E68F60200D56A
:100E40002543234E3560234E36683500A5434E6852
:100E5000B60200D525431F4E3560521C24E7F1BC75
:100E600070470200136989B20B4202D001231800B7
:100E700001E000231800C0B27047D2B2002A02D0AD
:100E800089B2816102E089B20B048361704710B5B9
:100E9000040011480068A4B2204206D0A4B20E4853
:100EA0000460200080B200F019F810BD4438024000
:100EB00008380140000002400004024000080240DF
:100EC000000C024000100240003C0140043C014084
:100ED000083C01400C3C0140143C014070470000BC
:100EE000F8B504000025FFF7CAFC0600002C01D16C
:100EF000012067E0606A0028002084F834000220A6
:100F000084F83500206800684008400021680860C7
:100F100020680068C0070BD5FFF7B1FC801B0628CE
:100F2000F6D320206065032084F83500032049E0D3
:100F3000206800680500DFF8280405406068A168A3
:100F40000843E16808432169084361690843A169CE
:100F50000843E1690843216A08430543606A04289D
:100F600003D1E06A216B08430543206805602068CF
:100F700040690500ED08ED00606A0543606A0428D9
:100F800010D1A06A0543E06A00280BD0200000F0D1
:100F9000EDF9002806D040206065012084F8350076
:100FA00001200FE020684561200000F0C2F9070031
:100FB0003F20E16D8840B86000206065012084F822
:100FC00035000020F2BD2DE9F84304000D001600A5
:100FD0001F005FF00008D4F8589094F834000128FE
:100FE00001D1022039E0012084F8340094F8350062
:100FF00001282BD1022084F83500002060653B00D9
:1010000032002900200000F07DF93F20E16D88408A
:10101000C9F808002068006850F0160021680860D0
:101020002068406950F0800021684861206C0028E9
:1010300005D02068006850F008002168086020682A
:10104000006850F001002168086004E0002084F886
:101050003400022080464046C0B2BDE8F28370B53D
:101060000400A56DFFF70BFC060094F8350002287C
:1010700006D080206065002084F8340001203BE029
:101080002068006830F01600216808602068406918
:1010900030F0800021684861206C002802D1A06CEB
:1010A000002805D02068006830F00800216808603A
:1010B00020680068400840002168086020680068D7
:1010C000C0070ED5FFF7DBFB801B0628F6D32020D8
:1010D0006065002084F83400032084F83500032084
:1010E0000AE03F20E16D8840A860002084F83400C9
:1010F000012084F83500002070BDF8B50400002000
:101100000090DFF8600200684FF41651B0FBF1F672
:10111000A76D386805000820E16D8840054211D0B0
:101120002068006840070DD52068006830F0040092
:10113000216808600820E16D8840B860606D50F05B
:1011400001006065E06D2900C140C8070BD520682B
:101150004069000607D50120E16D8840B860606DE8
:1011600050F0020060650420E16D884005420BD01C
:1011700020680068800707D50420E16D8840B860CA
:10118000606D50F0040060651020E16D88400542FC
:101190002DD020680068000729D51020E16D884017
:1011A000B86020680068400311D52068006800031B
:1011B00006D4206C00281AD02000216C884716E045
:1011C000A06C002813D02000A16C88470FE0206895
:1011D0000068C00505D42068006830F00800216868
:1011E0000860206C002802D02000216C8847202055
:1011F000E16D8840054260D020680068C0065CD57B
:101200002020E16D8840B86094F83500052828D189
:101210002068006830F01600216808602068406986
:1012200030F0800021684861206C002802D1A06C59
:10123000002805D02068006830F0080021680860A8
:101240003F20E16D8840B860002084F83400012020
:1012500084F83500206D002802D02000216D8847D9
:101260004FE020680068400311D520680068000343
:1012700006D4606C002820D02000616C88471CE0F8
:10128000E06B002819D02000E16B884715E020684A
:101290000068C0050BD42068006830F01000216899
:1012A0000860002084F83400012084F83500E06BE9
:1012B000002802D02000E16B8847606D002820D014
:1012C000606DC00717D5052084F8350020680068D8
:1012D00040084000216808600098401C0090864249
:1012E00003D320680068C007F6D4002084F83400D7
:1012F000012084F83500E06C002802D02000E16C69
:101300008847F1BD30B40468246834F4802405684B
:101310002C60046863608468402C04D10468A26077
:101320000468E16003E00468A1600468E26030BC26
:1013300070470178C9B210391822B1FBF2F10A4A9C
:101340008A5CC265042905D30268920A9202121DC2
:10135000826503E00268920A92028265806D70479E
:101360003F8010F008000020B026000810B40100F3
:1013700000208A6A8B69002B16D1002A05D0022A28
:1013800003D008D3032A0DD00DE0CB6ADB0101D5D1
:101390000123180035E0CB6AB3F1C07F01D10123EE
:1013A00018002EE02DE02CE08B69B3F5005F18D11A
:1013B000002A05D0022A03D005D3032A09D00FE062
:1013C000012318001DE0CB6ADB0101D501231800C1
:1013D00017E0CB6AB3F1C07F01D10123180010E000
:1013E0000FE01300002B022B02D9DB1E03D008E014
:1013F0000123180005E0CB6ADB0101D501231800A9
:10140000FFE7C0B210BC704780B5FFF7F3F900F0FA
:1014100019F900F0F6F900F0DCF900F074F900F0C9
:10142000B4F92021DFF89404FFF71BFD0028F8D061
:1014300047F23052DFF88814DFF8880400F0A1FA90
:10144000DFF88404006840680028F9D1DFF87404EC
:1014500000F02CFB42F21070DFF870140860DFF827
:101460006C04006844F620618842DADADFF8500440
:10147000DFF85814096830F81100DFF854140860D8
:1014800000F008F8DFF844040068401CDFF83C1462
:101490000860E4E780B50020DFF838140860DFF862
:1014A00030040068DFF8301408600A20DFF82814E0
:1014B0000968DFF82424126892FBF0F200FB121096
:1014C0003030DFF81814DFF80C2412685054DFF8BD
:1014D000080400680A2190FBF1F0DFF8FC130860B3
:1014E000DFF8F0030068401CDFF8E8130860DFF85D
:1014F000E80300680028D8D10020DFF8E413086072
:10150000DFF8CC03006800280ED4DFF8C4030068BD
:101510000A2809DADFF8C4030078DFF8C813087076
:101520000120DFF8BC130860DFF8A40300680A2874
:1015300014DBDFF89C03006864280FDADFF89C03F3
:101540004078DFF8A0130870DFF890030078DFF828
:10155000941348700220DFF888130860DFF87003E6
:10156000006864281BDBDFF868030068B0F57A7F49
:1015700015DADFF868038078DFF868130870DFF8A1
:101580005C034078DFF85C134870DFF850030078A4
:10159000DFF8501388700320DFF844130860DFF889
:1015A00030030068B0F57A7F18DBC948006842F262
:1015B0001071884212DAC948C078CA490870C74811
:1015C0008078C8494870C5484078C6498870C34883
:1015D0000078C449C8700420C1490860BC4800684C
:1015E00042F2107188421BDBB9480068BE4988424C
:1015F00016DABA480079BB490870B848C078B949CA
:101600004870B6488078B7498870B4484078B54982
:10161000C870B2480078B34908710520B049086025
:101620004FF6FF73AE480068020092B2AD49AF4872
:1016300000F075FC4FF6FF730222AD49AB4800F095
:101640006EFC01BD00B593B000200090A948006871
:1016500050F08050A7490860A648006810F08050FC
:101660000090009800200090A348006850F440408B
:10167000A1490860A048006810F44040009000981C
:10168000022006900120099010200A9002200C9060
:1016900000200D9008200E9064200F9002201090E2
:1016A0000420119006A8FEF777FD002803D08B21B7
:1016B000924800F031F90F200190022002900020A2
:1016C00003904FF48050049000200590032101A85E
:1016D000FEF75DFF002803D09921884800F01CF92F
:1016E000FFF74FF84FF47A71B0FBF1F0FFF7D4F940
:1016F0000420FFF7D7F9002200215FF0FF30FFF749
:10170000B1F913B000BD00B585B07D486D490860E2
:101710005FF480306B49486000206A49886000208F
:1017200068490861012067498861002065490862AD
:1017300000206449C8627348624988620020614998
:10174000C86001205F49C86100205E49086301202C
:101750005C4948615B4800F0E1F8002803D0BE21F5
:10176000664800F0D9F80120009001200190002087
:1017700002906946534800F0CEF9002803D0C821F2
:101780005E4800F0C9F805B000BD80B55E48574915
:1017900008605FF4E1305549486000205349886093
:1017A00000205249C8600020504908610C204F4970
:1017B000486100204D49886100204C49C8614B4870
:1017C00000F072FB002803D0DB214C4800F0A4F8A5
:1017D00001BD80B5002000904C48006850F48000A6
:1017E0004A4908604948006810F480000090009859
:1017F000002200213820FFF735F93820FFF745F99E
:1018000001BD00B587B0002000904048006850F04E
:1018100004003E4908603D48006810F00400009054
:101820000098002000903948006850F08000374947
:1018300008603648006810F0800000900098002092
:1018400000903248006850F00100304908602F488D
:10185000006810F001000090009800224FF4005141
:101860002B48FFF70AFB4FF4005001900120029033
:10187000002003900020049001A92548FFF70EFAEC
:1018800008200190234802900220039001A90B48F0
:10189000FFF704FA2020019000200290002003901E
:1018A00001A90648FFF7FAF9002200210920FFF7F5
:1018B000D9F80920FFF7E9F807B000BD00000240A1
:1018C00010040020D0EE002070EE002074EF002005
:1018D0007CEF002070EF002078EF002064EF002004
:1018E00080EF002058EF0020A086010018EF0020B4
:1018F00000000020403802400070004038240008FA
:10190000002001400100000F00100140303802406B
:101910000008024000001110FEE7000038B5040086
:101920000025002C01D101202AE0A06ADFF8C414B0
:101930008842206C002807D100206064002084F8D1
:101940003C002000FFF721F9206CC00611D4206C68
:1019500030F4885050F002002064200000F09DF91F
:1019600000206064206C30F0020050F00100206420
:1019700001E001200500002084F83C002800C0B2EE
:1019800032BDF8B504000D0016000020009094F858
:101990003C00012801D1022087E0012084F83C00AE
:1019A00020688068C00716D42068806850F0010065
:1019B00021688860DFF840040068DFF84014B0FB5D
:1019C000F1F00321484300900098002803D00098CC
:1019D000401E0090F8E720688068C00764D5206C3E
:1019E000DFF81C14084050F48070206420684068C0
:1019F000400505D5206C30F4005050F48050206430
:101A0000206CC00404D5606C30F00600606401E016
:101A100000206064002084F83C00DFF8E803070041
:101A20000FF2ED30A16BC8630FF25140A16B086457
:101A30000FF25940A16BC8647FF022002168086052
:101A40002068406850F080602168486020688068A5
:101A500050F480702168886033002A00206810F1FB
:101A60004C01A06BFFF7AFFA786810F01F0F0BD195
:101A70002068806810F0405F16D12068806850F0C0
:101A80008040216888600FE02068DFF87C1388427E
:101A90000AD12068806810F0405F05D12068806816
:101AA00050F08040216888600020F2BD38B5040005
:101AB000002594F83C00012801D1022027E00120F4
:101AC00084F83C00206880684008400021688860F5
:101AD00020688068C00715D42068806830F4807062
:101AE00021688860A06BFFF7BAFA0500206840689B
:101AF00030F0806021684860206C30F4885050F0ED
:101B000001002064002084F83C002800C0B232BDEF
:101B100070477047704778B402000020009092F838
:101B20003C00012801D10220B5E0012082F83C00F0
:101B300008680A2818D31068C06807240D680A3D91
:101B4000032615FB06F5AC40A0431468E06010685E
:101B5000C0688C680D680A3D032615FB06F5AC408D
:101B600020431468E06013E01068006907240D68E2
:101B700003267543AC40A0431468206110680069D7
:101B80008C680D6803267543AC40204314682061BF
:101B90004868072818D21068406B1F244D686D1ED6
:101BA000052615FB06F5AC40A04314686063106879
:101BB000406B0C884D686D1E052615FB06F5AC4084
:101BC00020431468606333E048680D2818D2106819
:101BD000006B1F244D68ED1F052615FB06F5AC4074
:101BE000A043146820631068006B0C884D68ED1FDB
:101BF000052615FB06F5AC4020431468206317E06A
:101C00001068C06A1F244D680D3D052615FB06F5BA
:101C1000AC40A0431468E0621068C06A0C884D684C
:101C20000D3D052615FB06F5AC4020431468E06227
:101C3000744803001068744CA04206D1086812284A
:101C400003D1586850F48000586010686E4CA04270
:101C50001DD108686D4CA04202D00868112816D129
:101C6000586850F4000058600868684CA0420ED1D3
:101C700061480068614CB0FBF4F00A2460430090B6
:101C80000098002803D00098401E0090F8E700203C
:101C900082F83C00002072BC70475A4A11004A6822
:101CA00032F440324A604A6843681A434A60026824
:101CB000526832F4807203685A600268526803699D
:101CC00052EA032203685A600268526832F0407296
:101CD00003685A600268526883681A4303685A604E
:101CE0000268926832F4006203689A60026892683F
:101CF000C3681A4303689A60826A3E4B9A4218D0BE
:101D00000268926832F0706203689A6002689268B2
:101D1000836A1A4303689A600268926832F04052FC
:101D200003689A6002689268C36A1A4303689A60FB
:101D30000BE00268926832F0706203689A60026891
:101D4000926832F0405203689A600268926832F0FA
:101D5000020203689A6002689268836952EA430249
:101D600003689A60026A002A14D00268526852F42A
:101D7000006203685A600268526832F46042036885
:101D80005A6002685268436A5B1E52EA4332036833
:101D90005A6005E00268526832F4006203685A60D3
:101DA0000268D26A32F470020368DA620268D26AA8
:101DB000C3695B1E52EA03520368DA6202689268E2
:101DC00032F4007203689A6002689268036B52EA08
:101DD000432203689A600268926832F48062036862
:101DE0009A6002689268436952EA832203689A60A3
:101DF000704700000100000F0800002040420F0063
:101E0000FEF9FFFF002301400020014012000010F6
:101E100038B50400A56B286C10F0500F29D1286C40
:101E200050F4007028642868806810F0405F1CD16E
:101E3000A869002819D12868C06A10F4700F03D06F
:101E400028688068400510D42868406830F0200079
:101E500029684860286C30F480702864286CC004BD
:101E600003D4286C50F0010028642800FFF750FECE
:101E700003E02000A96BC96C884731BD38B5040068
:101E8000A56B2800FFF745FE31BD000038B5040002
:101E9000A56B40202864686C50F00400686428003A
:101EA000FFF738FE31BD000010B50400002C01D151
:101EB000012033E0A0690028FFD194F83900002800
:101EC00005D1002084F838002000FEF7AEFE242063
:101ED00084F839002068C06830F400502168C86078
:101EE000200000F0C3F82068006930F490402168B9
:101EF00008612068406930F02A0021684861206844
:101F0000C06850F400502168C8600020E0632020C1
:101F100084F83900202084F83A00002010BD2DE913
:101F2000F84304000D0016001F005FF0000994F84C
:101F3000390020285FD1002D02D0B6B2002E01D189
:101F4000012059E094F83800012801D1022053E023
:101F5000012084F838000020E063212084F8390053
:101F6000FEF78DFC8146A684E684E08C00282FD005
:101F7000E08C401EE084A068B0F5805F18D1009727
:101F80004B4600228021200000F038F8002801D0C4
:101F9000032031E0A846B8F80000C005C00D216854
:101FA00048602069002801D1AD1CDEE76D1CDCE72C
:101FB00000974B4600228021200000F01FF80028E7
:101FC00001D0032018E02878216848606D1CCCE718
:101FD00000974B4600224021200000F00FF8002817
:101FE00001D0032008E0202084F83900002084F884
:101FF0003800002000E00220BDE8F2832DE9F04126
:1020000004000D0016001F00DDF81880206800682D
:102010002840A84201D1012000E00020F6B2B042E1
:1020200021D118F1010FF1D0B8F1000F04D0FEF763
:1020300026FCC01B8045E9D22068C06830F4D0700F
:102040002168C860206840694008400021684861F4
:10205000202084F83900202084F83A00002084F8F9
:102060003800032000E00020BDE8F0812DE9F843AE
:102070000400002520680069050035F44055E0683B
:102080000543206805612068C0680500BC4805401C
:10209000A0682169084361690843E1690843054371
:1020A0002068C56020684069050035F44075A06966
:1020B000054320684561E069B0F5004F40F0B0800D
:1020C0002068B049884203D02068AF49884253D184
:1020D000FEF765FB8146FEF762FB8046FEF75FFB7D
:1020E0000700FEF75CFB0600FEF759FB192101FB18
:1020F00009F162685200B1FBF2F16422B1FBF2F126
:10210000192202FB08F263685B00B2FBF3F21923A9
:1021100003FB07F367687F00B3FBF7F36427B3FBA8
:10212000F7F3642707FB1322D20032326423B2FB99
:10213000F3F212F0F802520012EB0111192202FB25
:1021400006F263685B00B2FBF3F21923584363683D
:102150005B00B0FBF3F06423B0FBF3F0642303FBFC
:102160001020C00032306422B0FBF2F010F0070003
:1021700040182168886000E1FEF706FB8146FEF703
:1021800003FB8046FEF700FB0700FEF7FDFA0600A2
:10219000FEF7FAFA192101FB09F162685200B1FB5E
:1021A000F2F16422B1FBF2F1192202FB08F263683A
:1021B0005B00B2FBF3F2192303FB07F367687F00B0
:1021C000B3FBF7F36427B3FBF7F3642707FB132292
:1021D000D20032326423B2FBF3F212F0F802520062
:1021E00012EB0111192202FB06F263685B00B2FBDD
:1021F000F3F21923584363685B00B0FBF3F06423E8
:10220000B0FBF3F0642303FB1020C00032306422E3
:10221000B0FBF2F010F00700401821688860ACE0D5
:1022200020685849884203D020685749884252D1D3
:10223000FEF7B5FA8146FEF7B2FA8046FEF7AFFA2E
:102240000700FEF7ACFA0600FEF7A9FA192101FB18
:1022500009F162689200B1FBF2F16422B1FBF2F184
:10226000192202FB08F263689B00B2FBF3F2192308
:1022700003FB07F36768BF00B3FBF7F36427B3FB07
:10228000F7F3642707FB1322120132326423B2FBF7
:10229000F3F212F0F00212EB0111192202FB06F226
:1022A00063689B00B2FBF3F21923584363689B00F9
:1022B000B0FBF3F06423B0FBF3F0642303FB1020C6
:1022C000000132306422B0FBF2F010F00F00401831
:1022D0002168886051E0FEF757FA8146FEF754FA0C
:1022E0008046FEF751FA0700FEF74EFA0600FEF7A9
:1022F0004BFA192101FB09F162689200B1FBF2F17E
:102300006422B1FBF2F1192202FB08F263689B0020
:10231000B2FBF3F2192303FB07F36768BF00B3FBBB
:10232000F7F36427B3FBF7F3642707FB13221201CB
:1023300032326423B2FBF3F212F0F00212EB01111D
:10234000192202FB06F263689B00B2FBF3F2192329
:10235000584363689B00B0FBF3F06423B0FBF3F0D9
:10236000642303FB1020000132306422B0FBF2F042
:1023700010F00F00401821688860BDE8F18300006C
:10238000F369FFFF0010014000140140433A5CC2B2
:10239000D3C75CC0F1EFE8F0E0EDF2F3F0E05CD31E
:1023A000C75FF1E8F1F25C53544D33325C4F736315
:1023B000696C6F677261665C4F6E6C7920444D4149
:1023C0005C53544D3332463431315F4F7363696C23
:1023D0006F677261665F31335F30355F3230323044
:1023E0005F3220444D4120696E746572727570745D
:1023F00020666F7220636F6E74726F6C2074696DEB
:1024000065209720EAEEEFE8FF5C53544D333246E7
:102410003431315F4F7363696C6F677261665C530F
:1024200072635C73746D3332663478785F68616CA4
:102430005F6D73702E630000433A5CC2D3C75CC00B
:10244000F1EFE8F0E0EDF2F3F0E05CD3C75FF1E824
:10245000F1F25C53544D33325C4F7363696C6F67B8
:102460007261665C4F6E6C7920444D415C53544DF3
:102470003332463431315F4F7363696C6F67726119
:10248000665F31345F30355F323032305F32204446
:102490004D415C53544D3332463431315F4F736399
:1024A000696C6F677261665C5372635C6D61696EC3
:1024B0002E6300001248006850F470001049086054
:1024C0001048006850F001000E49086000200E49D5
:1024D00008600C4800680D4908400A4908600C482B
:1024E0000C4908600748006830F4802005490860FE
:1024F0000020094908605FF00060084908607047E3
:1025000088ED00E00038024008380240FFFFF6FE88
:1025100010300024043802400C38024008ED00E07E
:1025200019E050F8041BCB0744BFA9F10103591867
:10253000121F0023042A41F8043BF9D25FEA827C8F
:102540000B4604D54FF0000CA1F800C09B1CD1072E
:1025500044BF0021197050F8042B002AE1D17047C4
:102560007047FEE7FEE7FEE7FEE7704770477047FB
:1025700080B5FEF77CF9FEF7B7FA01BD80B50820FB
:10258000FEF785FC01BD80B50148FEF7B6FD01BD33
:1025900070EE002010B450F8041B79B10268436853
:1025A00012180830DC0744BFA9F10104E31852F8FF
:1025B000044B43F8044B091FF9D1ECE710BC7047FA
:1025C00010B5074979441831064C7C44163404E0B0
:1025D0000A68081D511888470146A142F8D110BD6C
:1025E0002C0000004C0000004EF68851CEF2000195
:1025F000086840F470000860BFF34F8FBFF36F8F1F
:102600004FF00070E1EE100A7047000015FFFFFF69
:1026100078EB0000100400200000000079FFFFFFAD
:10262000100000007000000000000020000000000A
:1026300000F00BF8002801D0FFF7C2FF0020C046D1
:10264000C046FEF7E1FE00F002F80120704700F0FE
:1026500001B800000746384600F002F8FBE700002A
:1026600080B5C046C046024A11001820ABBEFBE749
:102670002600020000000000000000000102030428
:10268000060708090148804701480047B5240008AB
:10269000A52600080D0A0000100000000024F40028
:1026A00001000000C046C046FFF79EFFFFF7C0FFD5
:1026B00000061016000610160000000001020304B8
:1026C000FFF7FEBFFFF7FEBFFFF7FEBFFFF7FEBF3E
:1026D000FFF7FEBFFFF7FEBFFFF7FEBFFFF7FEBF2E
:1026E000FFF7FEBFFFF7FEBFFFF7FEBFFFF7FEBF1E
:1026F000FFF7FEBFFFF7FEBFFFF7FEBFFFF7FEBF0E
:10270000FFF7FEBFFFF7FEBFFFF7FEBFFFF7FEBFFD
:10271000FFF7FEBFFFF7FEBFFFF7FEBFFFF7FEBFED
:10272000FFF7FEBFFFF7FEBFFFF7FEBFFFF7FEBFDD
:10273000FFF7FEBFFFF7FEBFFFF7FEBFFFF7FEBFCD
:10274000FFF7FEBFFFF7FEBFFFF7FEBFFFF7FEBFBD
:10275000FFF7FEBFFFF7FEBFFFF7FEBFFFF7FEBFAD
:10276000FFF7FEBFFFF7FEBFFFF7FEBFFFF7FEBF9D
:10277000FFF7FEBFFFF7FEBFFFF7FEBFFFF7FEBF8D
:10278000FFF7FEBFFFF7FEBFFFF7FEBFFFF7FEBF7D
:0C279000FFF7FEBFFFF7FEBFFFF7FEBF24
:04000005080026A524
:00000001FF
